:020000040800F2
:1000000050160020450100085F640008FD1E00082E
:100010005D64000839050008B16B000800000000AD
:1000200000000000000000000000000083640008E1
:100030008B0500080000000081640008856400084A
:100040005F0100085F0100085F0100085F01000810
:100050005F0100085F0100085F0100085F01000800
:100060005F0100085F0100085F0100083D0500080E
:100070005F0100085F0100084905000855050008F8
:100080005F0100085F0100085F0100085F010008D0
:100090005F0100085F0100085F0100085F010008C0
:1000A0005F0100085F0100085F0100085F010008B0
:1000B0005F0100085F0100085F0100085F010008A0
:1000C0005F0100085F0100085F0100085F01000890
:1000D0005F010008656B00085F0100085F01000810
:1000E0005F0100085F0100085F0100085F01000870
:1000F0005F0100085F0100085F0100085F01000860
:100100005F0100085F0100085F0100085F0100084F
:100110005F0100085F0100085F0100085F0100083F
:100120005F0100085F0100085F0100085F0100082F
:10013000DFF80CD000F046F9004800479D6D00083C
:10014000501600200648804706480047FEE7FEE7B5
:10015000FEE7FEE7FEE7FEE7FEE7FEE7FEE7FEE777
:10016000ED64000831010008202A04DB203A21FA5E
:1001700002F00021704721FA02F3D040C2F12002C0
:100180009140084319467047D2B201E000F8012BB4
:10019000491EFBD270470022F6E710B513460A4607
:1001A00004461946FFF7F0FF204610BD2DE9FE4F2B
:1001B00081EA030404F0004421F0004100944FF070
:1001C000000B23F0004350EA01045ED052EA03041E
:1001D0005BD0C3F30A54C1F30A552C44A4F2F334A0
:1001E0000194A0FB0254C1F3130141F48011C3F345
:1001F000130343F4801301FB024400FB034E840A03
:10020000970A44EA815447EA8357A4FB076802959A
:100210008D0A05FB07854FEA932C04FB0C54270538
:10022000029D4FEA065847EA1637B5EB08056EEB14
:10023000070C870E920E47EA811742EA8312A7FB4A
:100240000201B6EB0B0164EB00042B0D43EA0C3307
:100250005E1844EB1C50DA465146E7FB0201C5F339
:1002600013044FEA0B3343EA14534FEA0432019C60
:1002700043EA0603A4F10C040294009CCDE900B407
:1002800000F051F803B0BDE8F08F00200146F9E717
:100290000EB540F2334102910021CDE900110A462A
:1002A0000B4600F040F803B000BDC1F30A5210B590
:1002B000C1F3130140F2FF3341F480119A4201DA95
:1002C000002010BD40F233439A42A2F2334203DCD5
:1002D0005242FFF749FF10BD904010BD30B50B46AC
:1002E000014600202022012409E021FA02F59D4266
:1002F00005D303FA02F5491B04FA02F52844151E3A
:10030000A2F10102F1DC30BD10B5141E73F100043E
:1003100008DA401C41F1000192185B411A4301D1F7
:1003200020F0010010BD2DE9F04D92469B4611B121
:10033000B1FA81F202E0B0FA80F22032904600F089
:1003400053F804460F4640EA0A0041EA0B015346BF
:100350005A46084313D0114653EA010019D0C8F198
:1003600040025046FFF700FF05460E4650465946EC
:10037000424600F039F8084305D0012004E0204649
:100380003946BDE8F08D0020054346EAE0762C436F
:1003900037430A986305E40AA0EB08000022FD0A2F
:1003A00044EA47540A3002D500200146E9E7010536
:1003B00010196941DDE9084500196941BDE8F04DB2
:1003C000A2E70000064C074D06E0E06840F001039C
:1003D00094E8070098471034AC42F6D3FFF7ACFE20
:1003E0004C6F00086C6F0008202A04DB203A00FAEA
:1003F00002F1002070479140C2F1200320FA03F37C
:10040000194390407047000070B504460068816849
:10041000C943C9071CD1816821F00101816000F046
:10042000F9FD05460FE000BF00F0F4FD401B022877
:1004300009D9A06A40F01000A062E06A40F0010013
:10044000E062012070BD20688068C043C007EBD027
:10045000002070BD10B50146406A826A12F0500F4C
:1004600005D0006A026BBDE8104008461047816A5B
:1004700041F40071816201688968C1F34241072932
:100480000CD1C16851B9816A21F480718162816A9D
:10049000C90403D4816A41F00101816200F0F6F8D9
:1004A00010BD10B5406A816A41F040018162C16AA5
:1004B00041F00401C16200F0F0F810BD10B5406ACF
:1004C00000F0EAF810BD0000F8B5002604460096DA
:1004D00000688168C943C90728D0816841F00101DB
:1004E0008160134813490068B0FBF1F000E0401E42
:1004F00000900028FBD100F08DFD054611E000BF03
:1005000000F088FD401B02280BD9A06A40F01000C3
:10051000A062E06A40F00100E06284F824600120FB
:10052000F8BD20688068C043C007E9D10020F8BD4D
:100530001000002040420F00FEE70000014800F0DC
:10054000BBBA0000EC0F0020014800F0B5BA000073
:10055000FC110020014800F0AFBA0000B8110020E3
:1005600030B590F840500124AC40C56B6C60046815
:1005700063604368102B036803D099600068C26011
:1005800030BD9A600068C16030BD704770470000A0
:10059000F8B50024009490F824202546012A12D0B2
:1005A000012280F824204A681F23072A0DD20668FA
:1005B000776B521E02EB820293409F430B6893407D
:1005C0001F43776319E00220F8BD06680D2A0AD29E
:1005D000376BD21F02EB820293409F430B6893401C
:1005E0001F43376309E0F76A0D3A02EB820293403A
:1005F0009F430B6893401F43F7620A68072306680E
:100600000A2A0AD3F7680A3A02EB420293409F4350
:100610008B6893401F43F76008E0376902EB4202A2
:1006200093409F438B6893401F4337610A68102AA9
:1006300001D0112A20D1124B02689A4217D1936837
:100640001B0219D4936843F40003936009681029CE
:1006500012D10C490C4A0968B1FBF2F101EB81019E
:10066000490000E0491E00910029FBD104E0816AA5
:1006700041F020018162012480F824502046F8BD19
:10068000002401401000002040420F0001490120D9
:100690000870704700000020704770472DE9F04156
:1006A00004004FF000057FD0A06A002628B9E6625A
:1006B00084F82460204600F081F82046FFF7A4FE6D
:1006C000A16AC90600D420B1A06A40F01000A0625F
:1006D0006AE0A16A21F4885141F00201A162334924
:1006E00023688B42E16904D1B1F5402F01D14FF469
:1006F0000021E7684FF4807C41EA470261680A43C1
:10070000A168614508D0012906D00021D4F814E081
:10071000BEF1010F02D00AE06146F7E7C7B1A76A50
:1007200047F02007A762E76A47F00107E7625F68C2
:1007300027F469470F435F60236899681C4F39406D
:1007400011439960A16861450BD0012909D00CE0E3
:10075000DFF860E0A7690EEB47370F4347F400610D
:10076000E5E7218A0D05A5F580152168CB6A23F4FC
:1007700070032B43CB62216889680F4B194091426B
:1007800008D1E662A16A21F0020141F00101A162F3
:10079000BDE8F081A06A20F0020040F01000A062E5
:1007A000E06A40F00100E0620120F1E7003C014016
:1007B000FDF7E1FF00E0FFFFFE0E1FFF70B586B002
:1007C00000250646009501950295039500681A4993
:1007D00088422ED11949886940F40070886188697F
:1007E00000F400700490886940F010008861886906
:1007F000694600F010000490012000900320019051
:100800000F4800F005FB104C0E48C4E9000580209D
:10081000C4E9025080002061800060612020C4E9AA
:100820000605204600F06CFA08B1FFF7AFFE34620F
:10083000666206B070BD0000002401400010024056
:100840000010014008000240EC0F00202DE9F047A5
:10085000894604463B4900683B4F0E1D904688423E
:1008600001D0B84207D1306810F4702F03D00125B1
:100870002846BDE8F08794F8240001280CD0012018
:1008800084F824002046FFF71FFE05004FF000000B
:1008900004D084F82400EBE70220EAE7A16A40F6DE
:1008A0000162914341F48071A1622168B94218D17B
:1008B000326812F4702F14D0A16A41F48011A16241
:1008C0003168490505D5A16A21F4005141F48051F0
:1008D000A162A16AC9040AD5E16A21F00601E162B8
:1008E00006E0A26A22F48012A2624968E9E7E062A7
:1008F00084F82400216A15488862216A1448C86275
:10090000216A1448086321686FF0020008602068BB
:10091000816841F480718160216843464A464C31C8
:10092000206A00F02BFA20688168C1F34241072950
:10093000816803D041F48011816099E741F4A001FE
:10094000FAE7000000240140002801405504000897
:10095000BD040008A304000801680A6822F00E0222
:100960000A6001680A6822F001020A6090F84020DB
:10097000C36B012101FA02F25A6080F821100021B4
:1009800080F82010084670472DE9F05F90F821109C
:100990000024022903D004218163012485E0016839
:1009A0000A6822F00E020A6001680A6822F0010259
:1009B0000A603F4E3E4FB215DFF8F4C0DFF8F0900A
:1009C000DFF8ECA0DFF8E8B0DFF8E4E00168783F9A
:1009D00013011502ACF1640CA9F15009AAF13C0A0B
:1009E000ABF1280BAEF1140E4FF48018B14227D9A9
:1009F000B9420ED0614512D049451DD0514518D09D
:100A0000594518D0714501D1424615E0294EB142F1
:100A100001D1012210E0274E1436B14201D110223B
:100A20000AE0244E2836B14206D0224A3C32914296
:100A300001D11A4600E02A461E49091F0A602BE030
:100A4000B94213D0614517D0494522D051451DD038
:100A500059451DD0714501D142461AE0B14202D13B
:100A60004FF0807215E0134EB14201D1012210E027
:100A7000104E1436B14201D110220AE00D4E283634
:100A8000B14206D00B4A3C32914201D11A4600E0F5
:100A90002A46074980394A60012180F82110002147
:100AA00080F82010416B01B188472046BDE8F09FD7
:100AB00080000240080402402DE9F05FC16B0A6823
:100AC00001680B68046C4FF0040808FA04F8844DC0
:100AD000844E854FDFF814C2DFF81492DFF814A2B9
:100AE000DFF814B2DFF814E218EA020F65D05FEA0B
:100AF000437862D50A68920603D40A6822F0040299
:100B00000A60DFF8F0814FF48062016808F1140890
:100B100013011402414524D9A9420DD0B1420FD08E
:100B2000B9421AD0614515D0494515D0514501D17A
:100B3000120312E0594501D104220EE0714501D1A2
:100B400040220AE06D4D1435A94206D06B4A283286
:100B5000914201D11A4600E022466749091F0A6006
:100B600029E0A94213D0B14215D0B94220D0614545
:100B70001BD049451BD0514502D14FF4800217E0EC
:100B8000414502D14FF0806212E0594501D1042263
:100B90000EE0714501D140220AE0584D1435A942BA
:100BA00006D0564A2832914201D11A4600E0224628
:100BB0004B4908394A60C16A71E04FF0020808FAEF
:100BC00004F818EA020F70D05FEA83786DD50A68DE
:100BD000920606D40A6822F00A020A60012180F80F
:100BE0002110DFF810814FF40072016808F1140839
:100BF00013011402414524D9A9420DD0B1420FD0AE
:100C0000B9421AD0614515D0494515D0514501D199
:100C1000120312E0594501D102220EE0714501D1C3
:100C200020220AE0354D1435A94206D0334A283235
:100C3000914201D11A4600E022462F49091F0A605D
:100C400029E0A94213D0B14215D0B94220D0614564
:100C50001BD049451BD0514502D14FF4001217E07B
:100C6000414502D14FF0007212E0594501D10222F4
:100C70000EE0714501D120220AE0204D1435A94231
:100C800006D01E4A2832914201D11A4600E022467F
:100C9000134908394A60002180F82010816A002930
:100CA0001CD0BDE8F05F0847FFE70825A5401542C6
:100CB00014D01A0712D50A6822F00E020A6090F8C2
:100CC0004020C36B012101FA02F25A60816380F86F
:100CD0002110002180F82010016BE0E7BDE8F09FB3
:100CE000080002401C000240300002404400024064
:100CF000580002406C000240080402401C040240FC
:100D000030B560B11A4B026814219A4209D2194BCE
:100D10001344B3FBF1F18900016417490AE0012093
:100D200030BD134B5B421344B3FBF1F18900016406
:100D30000F490839C163022180F82110136843F676
:100D4000F0718B43F0E901142143D0E902452C43B3
:100D500021430469214344692143846921431943A0
:100D6000116000214163012242770177084630BDBE
:100D700008040240F8FFFDBF0000024070B50446C1
:100D800090F82000002501280CD0012084F82000D4
:100D900094F821600020012E06D084F8200002255E
:100DA000284670BD022070BD022684F82160A06331
:100DB0002068066826F0010606602046FFF7D0FB93
:100DC000E06A00282068016802D041F00E0106E0C8
:100DD00021F0040101602068016841F00A0101600E
:100DE0002068016841F001010160D9E770B504464F
:100DF00000F010F90546601C02D004480078044455
:100E000000F008F9401BA042FAD370BD0400002096
:100E10002DE9F84FDFF8B8A100220AF1040B1446BF
:100E200001274FF00F090BF1040E00BF0B6807FA02
:100E300004F52B40AB4274D1DFF898C14E68A6EBA5
:100E40000C0866452BD00DDC032E34D005DC36B300
:100E5000012E19D0022E2FD11BE0112E16D0122EEA
:100E60002AD119E0B8F5881F19D006DCB8F5803F03
:100E700015D0B8F5801F1FD111E0B8F5001F0ED0B6
:100E8000B8F5041F18D10AE0CA6815E0CA68121D37
:100E900012E0CA6808320FE0CA680C320CE08A68B7
:100EA0002AB1012A4FF0080203D0456104E0042270
:100EB00002E0056100E00022FF2B01D8064601E0B8
:100EC00000F104064FEA840501D9A5F12005D6F802
:100ED00000C009FA05F82CEA080C02FA05F54CEAFC
:100EE000050CC6F800C04D68ED006AD53A4DAE69F4
:100EF00046F00106AE61AD6924F0030605F0010578
:100F00000095364D06EB050CDCF80850A6074FEAB5
:100F1000167809FA08F6B543314EB04202D10026E0
:100F20001AE04EE02F4EB04201D1012614E02E4EC1
:100F3000B04201D102260FE02C4EB04201D103266F
:100F40000AE02B4EB04201D1042605E0294EB04202
:100F500001D1052600E0062606FA08F62E43CCF855
:100F600008604D68DAF80060ED03554601D51E4370
:100F700000E09E432E604D68AD0305D5DBF80060B0
:100F80001E43CBF8006004E0DBF800509D43CBF833
:100F900000504D68DEF80060ED02754601D51E4335
:100FA00000E09E432E604D68AD0205D5084D0C351E
:100FB0002E681E432E6004E0054E0C3635689D43B6
:100FC0003560641C102CFFF431AFBDE8F88F0000D1
:100FD0000004014000001110001002400000014018
:100FE00000080140000C01400010014000140140C5
:100FF00000180140001C01408068084000D001201A
:101000007047C2684A40C26070470AB101617047C8
:101010000904FBE7014880687047000004000020D5
:101020000248816802781144816070470400002002
:10103000074810B5016841F010010160032000F07D
:1010400073F8002000F006F800F024F8002010BD2E
:101050000020024070B50D4D04464FF47A71287897
:10106000B1FBF0F00A490968B1FBF0F000F078FB41
:1010700048B9102C07D200222146501E00F034F847
:1010800000206C6070BD012070BD000004000020D5
:10109000100000200C4808B5816941F00101816110
:1010A000816901F001010091C16941F08051C16184
:1010B000C06900F0805000900448416821F0E06170
:1010C00041F00071416008BD001002400000014085
:1010D00000F01F02012191404009800000F1E02052
:1010E000C0F8001170470000F0B40E4B1B680C46AE
:1010F000C3F30223C3F10705042D00D90425191DEC
:10110000072901D2002300E0DB1E012606FA05F1C3
:10111000491E214099409E40761E16403143F0BC46
:1011200005F09EB90CED00E0064900F007020868E2
:101130004FF6FF03184040EA0220034A10430860BC
:10114000704700000CED00E00000FA052DE9F843BF
:1011500005460078354CC00754D0E0690026C00031
:1011600008D4E06940F08050E061E069012600F0B9
:10117000805000902E480168C90512D4016880464D
:1011800041F480710160FFF745FF074605E000BFAD
:10119000FFF740FFC01B642823D8D8F80000C00523
:1011A000F6D5206A10F4407021D0A98801F440716E
:1011B00081421CD0206A1F49012220F440700A603D
:1011C00000220A602062C00711D0FFF723FF074604
:1011D00041F2883808E000BFFFF71CFFC11B414502
:1011E00002D90320BDE8F883206A8007F4D5206A7D
:1011F000696820F44070084320621EB1E06920F065
:101200008050E0612878800705D56068A96820F4DF
:101210004040084360602878C00605D56068696969
:1012200020F48000084360600020DBE700100240EB
:1012300000700040400442422DE9F047DFF854813D
:1012400005460E46D8F8000000F00700B0420CD268
:10125000D8F8001021F007013143C8F80010D8F881
:10126000000000F00700B0426FD128684A4C8107A7
:1012700012D5400703D5606840F4E06060602878CC
:10128000000703D5606840F4605060606068A9683A
:1012900020F0F000084360602878C00744D06868F8
:1012A000012816D02168022816D0890700294CDAB7
:1012B000616821F0030101436160FFF7ABFE6968DB
:1012C000074641F2883001290ED00229814618D004
:1012D00026E021688903E9E78901E7E7FFF79AFE3D
:1012E000C11B494501D918E081466068C0F38100FF
:1012F0000128F3D118E000BFFFF78CFEC11B494560
:101300000BD86068C0F381000228F5D10CE000BF63
:10131000FFF780FEC11B494502D90320BDE8F087D5
:10132000606810F00C0FF3D1D8F80010404601F0BF
:101330000701B1420BD9016821F007013143016077
:10134000006800F00700B04201D00120E6E72878ED
:10135000400705D56068E96820F4E06008436060F4
:101360002878000706D56068296920F4605040EAB3
:10137000C100606000F03CF86168084AC1F30311E5
:10138000515CC840064908600020FFF763FE00205A
:10139000C4E700000020024000100240346F000843
:1013A0001000002001480068704700001000002075
:1013B0000448054900684968044AC1F30221515CA8
:1013C000C84070471000002000100240446F000821
:1013D0000448054900684968044AC1F3C221515CC8
:1013E000C84070471000002000100240446F000801
:1013F00012A185B00FC98DE80F0014A0144A00682F
:1014000004905168134801F00C03042B10D0082BF2
:101410000ED1C1F38343C9031DF803000AD55168F7
:1014200004AAC1F34041515C0A4A5043B0FBF1F0B9
:1014300005B0704708494843FAE700000203040575
:10144000060708090A0B0C0D0E0F10100102000010
:101450000010024000127A0000093D002DE9F84F0B
:1014600004460078B94DC00748D06868C0F38100D1
:10147000012807D06868C0F38100022809D1686894
:10148000C00306D52868800338D5606800286FD06F
:1014900034E06068B0F5803F0BD010B1B0F5A02FFC
:1014A00011D0286820F480302860286820F480203B
:1014B00002E0286840F480302860606888B1FFF757
:1014C000A9FD064609E0286840F480202860F0E77E
:1014D000FFF7A0FD801B642875D828688003F7D526
:1014E0000CE0FFF797FD064605E000BFFFF792FD11
:1014F000801B6428F0D828688003F7D42078944EA5
:1015000080074FF001094FF000083BD5686810F0E4
:101510000C0F07D06868C0F38100022809D1686801
:10152000C00306D42868800714D5206901281FD17C
:1015300010E02069B0B1C6F80090FFF76BFD0746D8
:1015400005E000BFFFF766FDC01B0228C4D828686D
:101550008007F7D52868616920F0F80040EAC100EB
:1015600028600FE0C6F80080FFF754FD074606E04C
:10157000E9E000BFFFF74EFDC01B022823D8286812
:101580008007F7D4207800072CD57248A169D9B11B
:10159000C0F80090FFF73EFD074604E0FFF73AFD74
:1015A000C01B02280FD8686A8007F7D56A484FF435
:1015B000FA510068B0FBF1F0009000BF0098411EA6
:1015C0000091FAD20EE080E0C0F80080FFF722FD23
:1015D000074604E0FFF71EFDC01B022875D8686AA5
:1015E0008007F7D42078400760D5E8690027C0005D
:1015F00008D4E86940F08050E861E869012700F00C
:101600008050009055480168C90513D4016883468D
:1016100041F480710160FFF7FDFC824606E000BFE7
:10162000FFF7F8FCA0EB0A0064284ED8DBF80000B6
:10163000C005F5D5E06801280AD008B1052813D007
:10164000286A20F001002862286A20F0040002E0E5
:10165000286A40F001002862E06841F2883B98B1B6
:10166000FFF7D8FC82460BE0286A40F004002862AD
:10167000EEE700BFFFF7CEFCA0EB0A0159455AD8B0
:10168000286A8007F6D50CE0FFF7C4FC824605E027
:10169000FFF7C0FCA0EB0A0159454CD8286A800727
:1016A000F6D41FB1E86920F08050E861E06988B3A2
:1016B0006968C1F38101022945D00228C6F860801B
:1016C00004D0FFF7A7FC044638E034E0FFF7A2FCA3
:1016D000074604E0FFF79EFCC01B02282BD82868B1
:1016E0008001F7D4206AB0F5803F05D16868A16811
:1016F00020F4003008436860D4E9080108436968B1
:1017000021F4741108436860C6F86090FFF782FC0A
:10171000044606E015E000BFFFF77CFC001B022832
:1017200009D828688001F7D50BE000BFFFF772FCED
:10173000001B022802D90320BDE8F88F2868800129
:10174000F4D40020F8E70120F6E700000010024082
:10175000000042428004424210000020007000401D
:1017600010B5401EB0F1807F01D3012010BD4FF0B5
:10177000E02460610F21601704F072FE0020A06178
:1017800007202061002010BD30B590F83C20012AD0
:1017900020D0012280F83C20022380F83D300368ED
:1017A0005C6824F070045C6003685C680D682C431E
:1017B0005C6003689C6824F080049C6003689C68FB
:1017C00049680C439C6080F83D20002180F83C1063
:1017D000084630BD022030BD10B5040003D094F897
:1017E0003D0010B107E0012010BD002084F83C004E
:1017F000204600F00DF8022084F83D00211D2068ED
:1018000004F098FE012084F83D00002010BD000087
:1018100008B500680649884208D10648816941F444
:1018200000518161806900F40050009008BD000003
:101830000034014000100240022180F83D10016890
:101840000A6842F001020A60012180F83D10002080
:10185000704770B5044690F83C00012817D0012568
:1018600084F83C50022084F83D002068826822F011
:10187000770222F47F4282600868502837D00DDC5E
:10188000202859D005DC88B3102841D151E002202E
:1018900070BD302853D040283AD13FE060282ED088
:1018A00070280BD0B0F5805F03D0B0F5005F2FD16A
:1018B00010E02068816821F0070115E0CB68D1E9CC
:1018C0000121206804F087FE2168886840F07700D5
:1018D00088601DE0CB68D1E90121206804F07BFE1F
:1018E0002068816841F48041816011E01EE0CA688F
:1018F0004968206804F044FF5021206806E0CA6867
:101900004968206804F04DFF6021206804F06DFEF6
:1019100084F83D50002084F83C0070BDCA684968D6
:10192000206804F02DFF40212068EFE700212068A7
:10193000ECE710212068E9E720212068E6E7302164
:101940002068E3E700B585B0002100910191029184
:10195000039100680B49884211D10B48816941F01D
:10196000040181618069694600F004000490402010
:1019700000900220019003900448FFF749FA05B057
:1019800000BD0000000400400010024000080140BB
:1019900070B5044690F83C000D4601280DD0012694
:1019A00084F83C60022084F83D0042B1042A18D03B
:1019B000082A2AD00C2A4DD139E0022070BD2068B7
:1019C00004F01CFE2068816941F0080181612068F3
:1019D000816921F004018161206881692A691143CC
:1019E00011E0206804F03AFE2068816941F400614A
:1019F00081612068816921F4806181612068816949
:101A00002A6941EA0221816124E0206804F05CFE39
:101A10002068C16941F00801C1612068C16921F0F5
:101A20000401C1612068C1692A69114311E020687D
:101A300004F07EFE2068C16941F40061C161206844
:101A4000C16921F48061C1612068C1692A6941EAE4
:101A50000221C16184F83D60002084F83C0070BD23
:101A600010B5040003D094F83D0010B107E0012048
:101A700010BD002084F83C00204600F00DF8022044
:101A800084F83D00211D206804F054FD012084F8F5
:101A90003D00002010BD000008B5006806498842DE
:101AA00008D10648C16941F00201C161C06900F076
:101AB0000200009008BD0000000400400010024039
:101AC00010B504460068012204F07AFD0849206838
:101AD000884202D00749884203D1416C41F4004159
:101AE00041642068016841F001010160002010BDDF
:101AF000002C01400034014010B5044600684169E3
:101B000094F83920C1F3C011212A0BD151B1416998
:101B100021F080014161206B08B1FEF71DFF2046D6
:101B200004F0AFFE2068416994F83A20C1F38011B7
:101B3000222A0BD151B1416921F040014161606B12
:101B400008B1FEF709FF204604F08DFE002010BD0D
:101B50007047000070B5026804461068D168536988
:101B600010F00F0F50D003F0010501F490763543CB
:101B70005DD0C20705D0CA0503D5E26B42F0010271
:101B8000E263420705D5DA0703D0E26B42F00202B6
:101B9000E263820705D5DA0703D0E26B42F0040264
:101BA000E263020705D5DA0703D0E26B42F00802D0
:101BB000E263E26B002A33D0800604D5880602D5A2
:101BC000204604F067FE20684069E16BC0F3801096
:101BD000090700D428B3204604F045FE2068416977
:101BE00049061AD5416921F040014161606BA0B1FD
:101BF0001B494163606BFEF7C7FE002810D0606B85
:101C0000416BBDE870400847830610D58B060ED5A2
:101C10002046BDE8704004F03DBE2046FFF798FF27
:101C200070BD2046FFF794FF0020E06370BD0306FF
:101C300006D50B0604D52046BDE8704004F02EBF43
:101C40004006F3D54806F1D5D168204621F0400181
:101C5000D160202184F8391000F04FF970BD0000E8
:101C6000C767000870B5040004D094F83900002557
:101C700010B106E0012070BD84F83850204600F015
:101C800023F8242084F839002068C16821F4005129
:101C9000C160204604F04AFE2068016921F49041A9
:101CA00001612068416921F02A0141612068C16811
:101CB00041F40051C160E563202084F8390084F8C4
:101CC0003A00002070BD0000F0B585B00024064643
:101CD000009401940294039400682D49884254D1E1
:101CE0002C48816941F480418161816901F480411E
:101CF0000491816941F0040181618069264D00F001
:101D0000040004904FF40070009002200190032022
:101D1000039069462846FFF77BF82815CDE90004B3
:101D2000694628460294FFF773F81D4D1B4880272B
:101D3000C5E90004C5E902472C616C61AC61284625
:101D4000EC61FEF7DDFF08B1FEF720FC75636E6203
:101D5000134D12484435143801C5102091C5104860
:101D600045F8104944306C61AC61EC61FEF7C8FF86
:101D700008B1FEF70BFC35630022114625206E6288
:101D8000FFF7B2F92520FFF7A3F905B0F0BD000079
:101D90000038014000100240000801405800024095
:101DA000B8110020F8B5044690F83A0020283CD13C
:101DB000C1B3BAB394F83800012836D0012084F8B2
:101DC0003800A162A2850025E563222084F83A004C
:101DD000636B17489862636B1648D862636B16484A
:101DE0001863606B134645630846666B21680246BC
:101DF0003046091DFEF7C2FF206801684168009166
:101E000084F83850C16841F48071C160206841692C
:101E100041F0010141612068416941F040014161A7
:101E20000020F8BDFFE70120FBE70220F9E70000F2
:101E3000216800085D680008D76700087047704790
:101E40002DE9F843044690F839001F4616460D4622
:101E5000202850D1A5B19EB194F8380001284AD06D
:101E6000012084F838004FF00008C4F83C8021209D
:101E700084F83900FFF7CEF8A6848146E68426E090
:101E80000120BDE8F883E08C401EE084A0684B464A
:101E9000B0F5805F4FF000024FF0800120460097C0
:101EA00003D004F02CFEE8B90DE004F028FEC8B918
:101EB00028882168C0F308004860206908B16D1CBB
:101EC00005E0AD1C03E0216815F8010B4860E08CCB
:101ED0000028D8D14B46002240212046009704F02C
:101EE0000EFE08B10320CCE7202084F8390084F8E6
:101EF00038800020C5E70220C3E77047FEE70000F6
:101F00002DE9F0431B4C8146002520886688464316
:101F1000A088A0F5D041043902D1A07901280CD0C5
:101F20000021084603F058FF04F020F912484FF44E
:101F300080734115114C802218E00020A0712A27DF
:101F400067814FF02B08A4F80C80014603F044FF92
:101F50000120A071A4F80A80A781E5E7036141612F
:101F6000C4F800904261026101616D1CB542F5D375
:101F7000BDE8F08340120020001001400C0C01402D
:101F80002DE9F04F4A492A242B25898845F2105A19
:101F90004FF4305B4FF4285E4FF448764FF0F00C6E
:101FA00049F241394FF4A07345F210374FF4F07203
:101FB00080B13F484FF00108494580F80680038012
:101FC000A0F802C001D0B9423ED12C26068144813E
:101FD000858157E036484FF00008494580F8068073
:101FE000A0F800C0438006D0A1F5D04CBCF1040C91
:101FF00001D0B9420CD12C2606814481A1F5D044F0
:102000008581043C01D0B94244D10380428041E043
:10201000514507D1A0F808B0A0F80AE04FF42C51C0
:1020200081810EE0A1F5C853633B06D022210181D6
:1020300020214181212181812CE02C2101814581B8
:1020400084810280468025E0A1F5D04CBCF1040CCF
:1020500009D051450BD1A0F808B0A0F80AE04FF420
:102060002C54848121E02C260681458109E0A1F5CC
:10207000C85CBCF1630C12D0222404812124448169
:1020800020248481A1F5D044043C01D0B94201D17F
:1020900002804380BDE8F04F002003F0F5BC4FF014
:1020A0002C0CA0F808C04481858106804280E9E7B5
:1020B000401200202DE9FE4F161ACDE900104FF016
:1020C00000085D1A47464FF0FF30002E02DD4FF04A
:1020D000010102E003D14FF000018B4602E083468C
:1020E000C6F10006002D02DD4FF0010002E003D131
:1020F0004FF00000824602E08246C5F10005AE4284
:1021000001DD344600E02C46601C4FF000090290CF
:1021100018E0009881B2019880B200F019F8B0443C
:102120002F44A04504DD0198A8EB04085844019011
:10213000A74203DD00983F1B5044009009F10100C5
:102140001FFA80F902998945E3DDBDE8FE8F0000A2
:1021500000B503F041FE04F009F807484FF4807120
:10216000016141154161054A054B12881A608022C0
:1021700042610261016100BD0010014014000020B5
:102180000C0C01402DE9F04FFE4887B08069FD49F5
:1021900040F008008861886900F0080000908869B4
:1021A00040F01000886188694FF0010A00F01000CB
:1021B00000904FF4F860CDE9020A0320CDE904A0B5
:1021C00002A9F148FEF724FE4FF6FF70029002A923
:1021D000EE48FEF71DFEEE48416821F0E06141F057
:1021E00080614160322004F0AFFD0121002003F046
:1021F000C3FF322004F0A8FD002003F0EFFBE54D03
:102200004FF4807449F24138A88046F6040945F23B
:10221000103B45F21057FF2806D3A0F57F41FF3948
:1022200002D0B0F5134F6DD1D32003F08DFF03F032
:102230009DFB03F09BFB03F099FB4FF6FF7606EA4C
:102240000020A88003F092FBA9880843A88040459D
:1022500058D0BF2003F078FF03F088FB03F086FB23
:1022600003F084FB03F082FB06EA0020A88003F061
:102270007DFBA9880843A880484543D0D42003F0BB
:1022800063FF03F073FB03F071FB03F06FFB06EADF
:102290000020A88003F06AFBA9880843A88058455D
:1022A00030D04FF45A4003F04FFF03F05FFB4FF480
:1022B0005B4003F049FF03F059FB06EA0020A880C9
:1022C0004FF45C4003F040FF03F050FBA988084343
:1022D000A880B0F5004F7DD0B84213D0A12003F004
:1022E00033FF03F043FBA88003F040FB06EA002025
:1022F000A88003F03BFBA9880843A0F5AE41A88065
:10230000613968D080B2404566D1CF2003F01CFF10
:10231000002003F007FFC12003F004FF302003F08A
:1023200001FFED2003F010FF642003F0FBFE03200B
:1023300003F0F8FE122003F0F5FE812003F0F2FE18
:10234000E82003F001FF852003F0ECFE102003F0ED
:10235000E9FE7A2003F0E6FECB2003F0F5FE3920FB
:1023600003F0E0FE2C2003F0DDFE002003F0DAFE97
:10237000342003F0D7FE022003F0D4FEF72003F050
:10238000E3FE202003F0CEFEEA2003F0DDFE002075
:1023900003F0C8FE002003F0C5FEC02003F0D4FE09
:1023A0001B2003F0BFFEC12003F0CEFE012003F08E
:1023B000B9FEC52003F0C8FE302003F0B3FE302084
:1023C00003F0B0FEC72003F0BFFEB72003F0AAFE63
:1023D000362002E0B1E0ABE0B2E003F0B5FE482009
:1023E00003F0A0FE3A2003F0AFFE552003F09AFE62
:1023F000B12003F0A9FE002003F094FE1A2003F0A0
:1024000091FEB62003F0A0FE0A2003F08BFEA2206E
:1024100003F088FEF22003F097FE002003F082FE16
:10242000262003F091FE012003F07CFEE02003F063
:102430008BFE0F2003F076FE2A2003F073FE282087
:1024400003F070FE082003F06DFE0E2003F06AFE1C
:10245000082003F067FE542003F064FEA92003F077
:1024600061FE432003F05EFE0A2003F05BFE0F20B6
:1024700003F058FE002003F055FE002003F052FE4A
:10248000002003F04FFE002003F04CFEE12003F09B
:102490005BFE002003F046FE152003F043FE1720EC
:1024A00003F040FE072003F03DFE112003F03AFE4A
:1024B000062003F037FE2B2003F034FE562003F0F5
:1024C00031FE3C2003F02EFE052003F02BFE1020F1
:1024D00003F028FE0F2003F025FE3F2003F022FE2C
:1024E0003F2003F01FFE0F2003F01CFE2B2003F003
:1024F0002BFE002003F016FE002003F013FE012047
:1025000003F010FE3F2003F00DFE2A2003F01CFE16
:10251000002003F007FE002003F004FE002003F07B
:1025200001FEEF2003F0FEFD112003F00DFEB8E0E8
:1025300041F66310A88003F08CB8AF8001F035B885
:1025400048457DD1112003F0FFFD142004F0FCFB71
:10255000D02003F0F9FD072003F0E4FD422003F052
:10256000E1FD1D2003F0DEFDD12003F0EDFD002094
:1025700003F0D8FD1A2003F0D5FD092003F0D2FDA9
:10258000D22009E00010024000100140000C014080
:10259000000001404012002003F0D6FD012003F0AE
:1025A000C1FD222003F0BEFDC02003F0CDFD1020B0
:1025B00003F0B8FD3B2003F0B5FD002003F0B2FDB1
:1025C000022003F0AFFD112003F0ACFDC52003F0A5
:1025D000BBFD032003F0A6FDC82003F0B5FD0020DD
:1025E00003F0A0FD252003F09DFD212003F09AFDBE
:1025F000052003F097FD002003F094FD0A2003F06E
:1026000091FD652003F08EFD252003F08BFD7720E2
:1026100003F088FD502003F085FD0F2003F082FDBC
:10262000002003F07FFDF82003F08EFD012003F071
:1026300079FDFE2003F088FD002003F073FD00E02B
:1026400035E0022003F06EFD202003F07DFD3620F2
:1026500003F07AFD082003F065FD3A2003F074FDD5
:10266000552003F05FFD2B2003F06EFD002003F0EA
:1026700059FD002003F056FD012003F053FD3F20DB
:1026800003F050FD2A2003F05FFD002003F04AFD17
:10269000002003F047FD012003F044FDDF2003F09C
:1026A00041FD782004F050FB292001F0FBBE584585
:1026B0007ED1ED2003F048FD012003F033FDFE2024
:1026C00003F030FDEE2003F03FFDDE2003F02AFD95
:1026D000212003F027FDF12003F036FD012003F057
:1026E00021FDDF2003F030FD102003F01BFDC4208E
:1026F00003F02AFD8F2003F015FDC62003F024FD12
:10270000002003F00FFDE22003F00CFDE22003F0B7
:1027100009FDE22003F006FDBF2003F015FDAA200D
:1027200003F000FDB02003F00FFD0D2003F0FAFCD4
:10273000002003F0F7FC0D2003F0F4FC002003F070
:10274000F1FC112003F0EEFC002003F0EBFC19205B
:1027500003F0E8FC002003F0E5FC212003F0E2FC9C
:10276000002003F0DFFC2D2003F0DCFC002003F050
:10277000D9FC3D2003F0D6FC002003F0D3FC5D2003
:1027800003F0D0FC002003F0CDFC5D2003F0CAFC78
:10279000002003F0C7FCB12003F0D6FC802003F03A
:1027A000C1FC002003F0BEFC8B2003F0BBFC00E06A
:1027B000FDE3002003F0B6FC962003F0B3FC0020FC
:1027C00003F0B0FCB22003F0BFFC002003F0AAFC31
:1027D000002003F0A7FC022003F0A4FC002003F07B
:1027E000A1FC032003F09EFC002003F09BFCB3201F
:1027F00003F0AAFC002003F095FC002003F092FCFB
:10280000002003F08FFC002003F08CFC002003F07C
:1028100089FC002003F086FC002003F083FC0020EC
:1028200003F080FC002003F07DFC002003F07AFC24
:10283000002003F077FC002003F074FC002003F07C
:1028400071FC002003F06EFC002003F06BFC002004
:1028500003F068FC002003F065FC002003F062FC3C
:10286000002003F05FFC002003F05CFC002003F07C
:1028700059FC002003F056FC002003F053FC00201C
:1028800003F050FCB42003F05FFC8B2003F04AFC03
:10289000002003F047FC962003F044FC002003F0E6
:1028A00041FCA12003F03EFC002003F03BFCB520DE
:1028B00003F04AFC022003F035FC002003F032FC58
:1028C000032003F02FFC002003F02CFC042003F075
:1028D00029FC002003F026FCB62003F035FC002084
:1028E00003F020FC002003F01DFCB72003F02CFCBB
:1028F000002003F017FC002003F014FC3F2003F03D
:1029000011FC002003F00EFC5E2003F00BFC002005
:1029100003F008FC642003F005FC002003F002FC37
:102920008C2003F0FFFB002003F0FCFBAC2003F045
:10293000F9FB002003F0F6FBDC2003F0F3FB0020A2
:1029400003F0F0FB702003F0EDFB002003F0EAFB46
:10295000902003F0E7FB002003F0E4FBEB2003F002
:10296000E1FB002003F0DEFBDC2003F0DBFB0020BA
:1029700003F0D8FBB82003F0E7FB002003F0D2FB04
:10298000002003F0CFFB002003F0CCFB002003F07D
:10299000C9FB002003F0C6FB002003F0C3FB0020AE
:1029A00003F0C0FB002003F0BDFBBA2003F0CCFB1A
:1029B000242003F0B7FB002003F0B4FB002003F059
:1029C000B1FB002003F0AEFBC12003F0BDFB2020D3
:1029D00003F0A8FB002003F0A5FB542003F0A2FBAA
:1029E000002003F09FFBFF2003F09CFB002003F07E
:1029F00099FBC22003F0A8FB0A2003F093FB002000
:102A000003F090FB042003F08DFB002003F08AFB11
:102A1000C32003F099FB3C2003F084FB002003F06B
:102A200081FB3A2003F07EFB002003F07BFB392082
:102A300003F078FB002003F075FB372003F072FBF6
:102A4000002003F06FFB3C2003F06CFB002003F040
:102A500069FB362003F066FB002003F063FB3220A5
:102A600003F060FB002003F05DFB2F2003F05AFB16
:102A7000002003F057FB2C2003F054FB002003F050
:102A800051FB292003F04EFB002003F04BFB2620D6
:102A900003F048FB002003F045FB242003F042FB39
:102AA000002003F03FFB242003F03CFB002003F058
:102AB00039FB232003F036FB002003F033FB3C20DE
:102AC00003F030FB002003F02DFB362003F02AFB3F
:102AD000002003F027FB322003F024FB002003F04A
:102AE00021FB2F2003F01EFB002003F01BFB2C20FA
:102AF00003F018FB002003F015FB292003F012FB64
:102B0000002003F00FFB262003F00CFB002003F055
:102B100009FB242003F006FB002003F003FB242024
:102B200003F000FB002003F0FDFA232003F0FAFA83
:102B3000002003F0F7FAC42003F006FB622003F044
:102B4000F1FA002003F0EEFA052003F0EBFA002082
:102B500003F0E8FA842003F0E5FA002003F0E2FA3B
:102B6000F02003F0DFFA002003F0DCFA182003F075
:102B7000D9FA002003F0D6FAA42003F0D3FA0020FB
:102B800003F0D0FA182003F0CDFA002003F0CAFABF
:102B9000502003F0C7FA002003F0C4FA0C2003F021
:102BA000C1FA002003F0BEFA172003F0BBFA0020A0
:102BB00003F0B8FA952003F0B5FA002003F0B2FA5A
:102BC000F32003F0AFFA002003F0ACFAE62003F0A4
:102BD000A9FA002003F0A6FAC52003F0B5FA3220C6
:102BE00003F0A0FA002003F09DFA442003F09AFAC3
:102BF000002003F097FA652003F094FA002003F018
:102C000091FA762003F08EFA002003F08BFA8820E8
:102C100003F088FA002003F085FAC62003F094FA46
:102C2000202003F07FFA002003F07CFA172003F045
:102C300079FA002003F076FA012003F073FA0020FD
:102C400003F070FAC72003F07FFA002003F06AFA5D
:102C5000002003F067FA002003F064FA002003F07C
:102C600061FAC82003F070FA002003F05BFA00203C
:102C700003F058FA002003F055FA002003F052FA4E
:102C8000C92003F061FA002003F04CFA002003F0A1
:102C900049FA002003F046FA002003F043FA00202E
:102CA00003F040FA002003F03DFA002003F03AFA66
:102CB000002003F037FA002003F034FA002003F07C
:102CC00031FA002003F02EFA002003F02BFA002046
:102CD00003F028FA002003F025FA002003F022FA7E
:102CE000002003F01FFAE02003F02EFA162003F074
:102CF00019FA002003F016FA1C2003F013FA002042
:102D000003F010FA212003F00DFA002003F00AFA74
:102D1000362003F007FA002003F004FA462003F0FF
:102D200001FA002003F0FEF9522003F0FBF9002025
:102D300003F0F8F9642003F0F5F9002003F0F2F94C
:102D40007A2003F0EFF9002003F0ECF98B2003F078
:102D5000E9F9002003F0E6F9992003F0E3F90020F7
:102D600003F0E0F9A82003F0DDF9002003F0DAF920
:102D7000B92003F0D7F9002003F0D4F9C42003F000
:102D8000D1F9002003F0CEF9CA2003F0CBF90020DE
:102D900003F0C8F9D22003F0C5F9002003F0C2F90E
:102DA000D92003F0BFF9002003F0BCF9E02003F0C4
:102DB000B9F9002003F0B6F9F32003F0B3F90020CD
:102DC00003F0B0F9E12003F0BFF9162003F0AAF9EF
:102DD000002003F0A7F91C2003F0A4F9002003F061
:102DE000A1F9222003F09EF9002003F09BF9362080
:102DF00003F098F9002003F095F9452003F092F9CB
:102E0000002003F08FF9522003F08CF9002003F02A
:102E100089F9642003F086F9002003F083F97A2011
:102E200003F080F9002003F07DF98B2003F07AF99C
:102E3000002003F077F9992003F074F9002003F0E3
:102E400071F9A82003F06EF9002003F06BF9B920A6
:102E500003F068F9002003F065F9C42003F062F97B
:102E6000002003F05FF9CA2003F05CF9002003F0B2
:102E700059F9D22003F056F9002003F053F9D82075
:102E800003F050F9002003F04DF9E02003F04AF977
:102E9000002003F047F9F32003F044F9002003F089
:102EA00041F9E22003F050F9052003F03BF900203E
:102EB00003F038F90B2003F035F9002003F032F964
:102EC0001B2003F02FF9002003F02CF9342003F02D
:102ED00029F9002003F026F9442003F023F900200B
:102EE00003F020F94F2003F01DF9002003F01AF938
:102EF000612003F017F9002003F014F9792003F0A2
:102F000011F9002003F00EF9882003F00BF90020DE
:102F100003F008F9972003F005F9002003F002F907
:102F2000A62003F0FFF8002003F0FCF8B72003F020
:102F3000F9F8002003F0F6F8C22003F0F3F80020BF
:102F400003F0F0F8C72003F0EDF8002003F0EAF8F2
:102F5000D12003F0E7F8002003F0E4F8D62003F0D6
:102F6000E1F8002003F0DEF8DD2003F0DBF80020BC
:102F700003F0D8F8F32003F0D5F8002003F0D2F8DE
:102F8000E32003F0E1F8052003F0CCF8002003F083
:102F9000C9F80A2003F0C6F8002003F0C3F81C208B
:102FA00003F0C0F8002003F0BDF8332000E0FAE29F
:102FB00003F0B8F8002003F0B5F8442003F0B2F8AD
:102FC000002003F0AFF8502003F0ACF8002003F02D
:102FD000A9F8622003F0A6F8002003F0A3F87820F7
:102FE00003F0A0F8002003F09DF8882003F09AF881
:102FF000002003F097F8972003F094F8002003F0E6
:1030000091F8A62003F08EF8002003F08BF8B7208B
:1030100003F088F8002003F085F8C22003F082F85E
:10302000002003F07FF8C72003F07CF8002003F0B5
:1030300079F8D12003F076F8002003F073F8D5205A
:1030400003F070F8002003F06DF8DD2003F06AF85B
:10305000002003F067F8F32003F064F8002003F089
:1030600061F8E42003F070F8012003F05BF8002021
:1030700003F058F8012003F055F8002003F052F84F
:10308000022003F04FF8002003F04CF82A2003F050
:1030900049F8002003F046F83C2003F043F80020F4
:1030A00003F040F84B2003F03DF8002003F03AF81D
:1030B0005D2003F037F8002003F034F8742003F0AB
:1030C00031F8002003F02EF8842003F02BF80020C4
:1030D00003F028F8932003F025F8002003F022F8ED
:1030E000A22003F01FF8002003F01CF8B32003F027
:1030F00019F8002003F016F8BE2003F013F80020A2
:1031000003F010F8C42003F00DF8002003F00AF8D3
:10311000CD2003F007F8002003F004F8D32003F0DB
:1031200001F8002002F0FEFFDD2002F0FBFF00208E
:1031300002F0F8FFF32002F0F5FF002002F0F2FFAA
:10314000E52003F001F8002002F0ECFF002002F07F
:10315000E9FF002002F0E6FF002002F0E3FF02207A
:1031600002F0E0FF002002F0DDFF292002F0DAFF8C
:10317000002002F0D7FF3C2002F0D4FF002002F034
:10318000D1FF4B2002F0CEFF002002F0CBFF5D20EC
:1031900002F0C8FF002002F0C5FF742002F0C2FF59
:1031A000002002F0BFFF842002F0BCFF002002F0EC
:1031B000B9FF932002F0B6FF002002F0B3FFA22077
:1031C00002F0B0FF002002F0ADFFB32002F0AAFF32
:1031D000002002F0A7FFBE2002F0A4FF002002F0B2
:1031E000A1FFC42002F09EFF002002F09BFFCD2033
:1031F00002F098FF002002F095FFD32002F092FF2A
:10320000002002F08FFFDC2002F08CFF002002F093
:1032100089FFF32002F086FF002002F083FFE62002
:1032200002F092FF112002F07DFF002002F07AFFF1
:10323000342002F077FF002002F074FF562002F0E5
:1032400071FF002002F06EFF762002F06BFF00207D
:1032500002F068FF772002F065FF002002F062FFB5
:10326000662002F05FFF002002F05CFF882002F081
:1032700059FF002002F056FF992002F053FF002072
:1032800002F050FFBB2002F04DFF002002F04AFF89
:10329000992002F047FF002002F044FF662002F070
:1032A00041FF002002F03EFF552002F03BFF0020CE
:1032B00002F038FF552002F035FF002002F032FF07
:1032C000452002F02FFF002002F02CFF432002F0E7
:1032D00029FF002002F026FF442002F023FF0020F7
:1032E00002F020FFE72002F02FFF322002F01AFF49
:1032F000002002F017FF552002F014FF002002F01A
:1033000011FF762002F00EFF002002F00BFF662076
:1033100002F008FF002002F005FF672002F002FF24
:10332000002002F0FFFE672002F0FCFE002002F009
:10333000F9FE872002F0F6FE002002F0F3FE99204D
:1033400002F0F0FE002002F0EDFEBB2002F0EAFEEB
:10335000002002F0E7FE992002F0E4FE002002F0D7
:10336000E1FE772002F0DEFE002002F0DBFE4420CA
:1033700002F0D8FE002002F0D5FE562002F0D2FE68
:10338000002002F0CFFE232002F0CCFE002002F04D
:10339000C9FE332002F0C6FE002002F0C3FE452025
:1033A00002F0C0FE002002F0BDFEE82002F0CCFEDC
:1033B000002002F0B7FE002002F0B4FE992002F0D7
:1033C000B1FE002002F0AEFE872002F0ABFE00202E
:1033D00002F0A8FE882002F0A5FE002002F0A2FE66
:1033E000772002F09FFE002002F09CFE662002F093
:1033F00099FE002002F096FE882002F093FE002045
:1034000002F090FEAA2002F08DFE002002F08AFE5B
:10341000BB2002F087FE002002F084FE992002F01B
:1034200081FE002002F07EFE662002F07BFE00207E
:1034300002F078FE552002F075FE002002F072FEC8
:10344000552002F06FFE002002F06CFE442002F0D6
:1034500069FE002002F066FE442002F063FE0020B8
:1034600002F060FE552002F05DFE002002F05AFEE0
:10347000E92002F069FEAA2002F054FE002002F0CA
:1034800051FE002002F04EFE002002F04BFE002014
:1034900002F05AFEAA2002F045FECF2002F054FEB0
:1034A000002002F03FFE002002F03CFE002002F06F
:1034B00039FE002002F036FE002002F033FE00202C
:1034C00002F030FE002002F02DFE002002F02AFE65
:1034D000002002F027FE002002F024FE002002F06F
:1034E00021FE002002F01EFE002002F01BFE002044
:1034F00002F018FE002002F015FE002002F012FE7D
:10350000002002F00FFEF02002F01EFE002002F06C
:1035100009FE502002F006FE002002F003FE00200B
:1035200002F000FE002002F0FDFDF32002F00CFE90
:10353000002002F0F7FDF92002F006FE062002F05E
:10354000F1FD102002F0EEFD292002F0EBFD00203D
:1035500002F0E8FD3A2002F0F7FD552002F0E2FD0E
:10356000112002F0F1FD642003F0EEFB292002F0AF
:10357000EBFD352002F0E8FD002002F0D3FD5120E4
:1035800002F0E2FDFF2002F0CDFD532002F0DCFD51
:103590002C2002F0C7FD552002F0D6FD822002F05B
:1035A000C1FD2C20FDE3B8427DD14FF4704455217C
:1035B000204602F0E1FD651CAA21284602F0DCFD50
:1035C000A61C5221304602F0D7FDE71C08213846E0
:1035D00002F0D2FD4FF204080121404602F0CCFD7A
:1035E0000D214FF4304002F0C7FD0D214BF20100D8
:1035F00002F0C2FD0D214BF2020002F0BDFD4FF4BE
:1036000036493421484602F0B7FD34214BF20160BF
:1036100002F0B2FD34214BF2026002F0ADFD4FF436
:10362000314B0D21584602F0A7FD0D214BF2011040
:1036300002F0A2FD0D214BF2021002F09DFD34219B
:103640004FF4374002F098FD34214BF2017002F044
:1036500093FD34214BF2027002F08EFD00214FF4F5
:10366000324002F089FD00214BF2012002F084FD7E
:1036700000214BF2022002F07FFD24214FF438405C
:1036800002F07AFD24214BF6010002F075FD2421A1
:103690004BF6020002F070FD01214FF43F4002F0B2
:1036A0006BFD0F2100E0FDE34FF4334002F064FDB9
:1036B0000F214BF2013002F05FFD0F214BF202307F
:1036C00002F05AFD34214FF4394002F055FD342107
:1036D0004BF6011002F050FD34214BF6021002F0BF
:1036E0004BFD08214FF4354002F046FD08214BF216
:1036F000015002F041FD08214BF2025002F03CFD66
:1037000003214FF4424002F037FD24214FF43A40A8
:1037100002F032FD24214BF6012002F02DFD242180
:103720004BF6022002F028FD00214FF43C4002F04D
:1037300023FD78214BF6014002F01EFD00214BF6DF
:10374000024002F019FD00214FF43D4002F014FD4B
:1037500078214BF6015002F00FFD00214BF602508C
:1037600002F00AFD00214FF43E4002F005FD642105
:103770004BF6016002F000FD00214FF4514002F0D1
:10378000FBFC33214DF2011002F0F6FC00214DF25A
:10379000021002F0F1FC34214DF2031002F0ECFCB7
:1037A00000214DF2041002F0E7FC3A214DF2051021
:1037B00002F0E2FC00214DF2061002F0DDFC4A218D
:1037C0004DF2071002F0D8FC00214DF2081002F073
:1037D000D3FC5C214DF2091002F0CEFC00214DF229
:1037E0000A1002F0C9FC81214DF20B1002F0C4FC5A
:1037F00000214DF20C1002F0BFFCA6214DF20D107D
:1038000002F0BAFC00214DF20E1002F0B5FCE521E9
:103810004DF20F1002F0B0FC01214DF2101002F039
:10382000ABFC13214DF2111002F0A6FC01214DF268
:10383000121002F0A1FC54214DF2131002F09CFC76
:1038400001214DF2141002F097FC82214DF2151067
:1038500002F092FC01214DF2161002F08DFCCA21FB
:103860004DF2171002F088FC02214DF2181002F000
:1038700083FC00214DF2191002F07EFC02214DF272
:103880001A1002F079FC01214DF21B1002F074FCB9
:1038900002214DF21C1002F06FFC34214DF21D107C
:1038A00002F06AFC02214DF21E1002F065FC672155
:1038B0004DF21F1002F060FC02214DF2201002F0C8
:1038C0005BFC84214DF2211002F056FC02214DF2E6
:1038D000221002F051FCA4214DF2231002F04CFC06
:1038E00002214DF2241002F047FCB7214DF22510C1
:1038F00002F042FC02214DF2261002F03DFCCF21E5
:103900004DF2271002F038FC02214DF2281002F08F
:1039100033FCDE214DF2291002F02EFC02214DF283
:103920002A1002F029FCF2214DF22B1002F024FCA7
:1039300002214DF22C1002F01FFCFE214DF22D1041
:1039400002F01AFC03214DF22E1002F015FC10219A
:103950004DF22F1002F010FC03214DF2301002F056
:103960000BFC33214DF2311002F006FC03214DF225
:10397000321002F001FC6D214DF2331002F0FCFB1D
:1039800000214FF4524002F0F7FB33214DF20120A9
:1039900002F0F2FB00214DF2022002F0EDFB342197
:1039A0004DF2032002F0E8FB00214DF2042002F06A
:1039B000E3FB3A214DF2052002F0DEFB00214DF23F
:1039C000062002F0D9FB4A214DF2072002F0D4FB79
:1039D00000214DF2082002F0CFFB5C214DF20920BE
:1039E00002F0CAFB00214DF20A2002F0C5FB812142
:1039F0004DF20B2002F0C0FB00214DF20C2002F032
:103A0000BBFBA6214DF20D2002F0B6FB00214DF2CA
:103A10000E2002F0B1FBE5214DF20F2002F0ACFBCD
:103A200001214DF2102002F0A7FB13214DF21120CD
:103A300002F0A2FB01214DF2122002F09DFB542165
:103A40004DF2132002F098FB01214DF2142002F0F8
:103A500093FB82214DF2152002F08EFB01214DF2E5
:103A6000162002F089FBCA214DF2172002F084FBD8
:103A700002214DF2182002F07FFB00214DF21920A7
:103A800002F07AFB02214DF21A2002F075FB0121AF
:103A90004DF21B2002F070FB02214DF21C2002F0BF
:103AA0006BFB34214DF21D2002F066FB02214DF22A
:103AB0001E2002F061FB67214DF21F2002F05CFB2B
:103AC00002214DF2202002F057FB84214DF22120EB
:103AD00002F052FB02214DF2222002F04DFBA42104
:103AE0004DF2232002F048FB02214DF2242002F087
:103AF00043FBB7214DF2252002F03EFB02214DF29F
:103B0000262002F039FBCF214DF2272002F034FBB2
:103B100002214DF2282002F02FFBDE214DF2292058
:103B200002F02AFB02214DF22A2002F025FBF221AD
:103B30004DF22B2002F020FB02214DF22C2002F04E
:103B40001BFBFE214DF22D2002F016FB03214DF24E
:103B50002E2002F011FB10214DF22F2002F00CFB61
:103B600003214DF2302002F007FB33214DF23120CA
:103B700002F002FB03214DF2322002F0FDFA6D212A
:103B80004DF2332002F0F8FA00214FF4534002F0D6
:103B9000F3FA33214DF2013002F0EEFA00214DF23A
:103BA000023002F0E9FA34214DF2033002F0E4FA77
:103BB00000214DF2043002F0DFFA3A214DF20530D7
:103BC00002F0DAFA00214DF2063002F0D5FA4A216D
:103BD0004DF2073002F0D0FA00214DF2083002F029
:103BE000CBFA5C214DF2093002F0C6FA00214DF209
:103BF0000A3002F0C1FA81214DF20B3002F0BCFA1A
:103C000000214DF20C3002F0B7FAA6214DF20D3032
:103C100002F0B2FA00214DF20E3002F0ADFAE521C9
:103C20004DF20F3002F0A8FA01214DF2103002F0EF
:103C3000A3FA13214DF2113002F09EFA01214DF248
:103C4000123002F099FA54214DF2133002F094FA36
:103C500001214DF2143002F08FFA82214DF215301D
:103C600002F08AFA01214DF2163002F085FACA21DB
:103C70004DF2173002F080FA02214DF2183002F0B6
:103C80007BFA00214DF2193002F076FA02214DF252
:103C90001A3002F071FA01214DF21B3002F06CFA79
:103CA00002214DF21C3002F067FA34214DF21D3032
:103CB00002F062FA02214DF21E3002F05DFA672135
:103CC0004DF21F3002F058FA02214DF2203002F07E
:103CD00053FA84214DF2213002F04EFA02214DF2C6
:103CE000223002F049FAA4214DF2233002F044FAC6
:103CF00002214DF2243002F03FFAB7214DF2253077
:103D000002F03AFA02214DF2263002F035FACF21C4
:103D10004DF2273002F030FA02214DF2283002F045
:103D20002BFADE214DF2293002F026FA02214DF263
:103D30002A3002F021FAF2214DF22B3002F01CFA67
:103D400002214DF22C3002F017FAFE214DF22D30F7
:103D500002F012FA03214DF22E3002F00DFA10217A
:103D60004DF22F3002F008FA03214DF2303002F00C
:103D700003FA33214DF2313002F0FEF903214DF206
:103D8000323002F0F9F96D214DF2333002F0F4F9DE
:103D900000214FF4544002F0EFF933214DF201407D
:103DA00000E07FE302F0E8F900214DF2024002F06A
:103DB000E3F934214DF2034002F0DEF900214DF227
:103DC000044002F0D9F93A214DF2054002F0D4F94D
:103DD00000214DF2064002F0CFF94A214DF2074092
:103DE00002F0CAF900214DF2084002F0C5F95C2149
:103DF0004DF2094002F0C0F900214DF20A4002F0F4
:103E0000BBF981214DF20B4002F0B6F900214DF2D1
:103E10000C4002F0B1F9A6214DF20D4002F0ACF9D0
:103E200000214DF20E4002F0A7F9E5214DF20F40BE
:103E300002F0A2F901214DF2104002F09DF9132188
:103E40004DF2114002F098F901214DF2124002F0BA
:103E500093F954214DF2134002F08EF901214DF2F5
:103E6000144002F089F982214DF2154002F084F9E4
:103E700001214DF2164002F07FF9CA214DF21740A0
:103E800002F07AF902214DF2184002F075F9002192
:103E90004DF2194002F070F902214DF21A4002F081
:103EA0006BF900E002E301214DF21B4002F064F9DE
:103EB00002214DF21C4002F05FF934214DF21D4009
:103EC00002F05AF902214DF21E4002F055F9672125
:103ED0004DF21F4002F050F902214DF2204002F055
:103EE0004BF984214DF2214002F046F902214DF2B6
:103EF000224002F041F9A4214DF2234002F03CF9A6
:103F000002214DF2244002F037F9B7214DF225404D
:103F100002F032F902214DF2264002F02DF9CF21B4
:103F20004DF2274002F028F902214DF2284002F01C
:103F300023F9DE214DF2294002F01EF902214DF253
:103F40002A4002F019F9F2214DF22B4002F014F947
:103F500002214DF22C4002F00FF9FE214DF22D40CE
:103F600002F00AF903214DF22E4002F005F910216A
:103F70004DF22F4002F000F903214DF2304002F0E3
:103F8000FBF833214DF2314002F0F6F803214DF2F7
:103F9000324002F0F1F86D214DF2334002F0ECF8BE
:103FA00000214FF4554002F0E7F833214DF2015063
:103FB00002F0E2F800214DF2025002F0DDF8342167
:103FC0004DF2035002F0D8F800214DF2045002F0F7
:103FD000D3F83A214DF2055002F0CEF800214DF20F
:103FE000065002F0C9F84A214DF2075002F0C4F819
:103FF00000214DF2085002F0BFF85C214DF209504B
:1040000002F0BAF800214DF20A5002F0B5F8812111
:104010004DF20B5002F0B0F800214DF20C5002F0BE
:10402000ABF8A6214DF20D5002F0A6F800214DF29A
:104030000E5002F0A1F8E5214DF20F5002F09CF86D
:1040400001214DF2105002F097F813214DF211505A
:1040500002F092F801214DF2125002F08DF8542135
:104060004DF2135002F088F801214DF2145002F085
:1040700083F882214DF2155002F07EF801214DF2B5
:10408000165002F079F8CA214DF2175002F074F878
:1040900002214DF2185002F06FF800214DF2195034
:1040A00002F06AF802214DF21A5002F065F801217F
:1040B0004DF21B5002F060F802214DF21C5002F04C
:1040C0005BF834214DF21D5002F056F802214DF2FA
:1040D0001E5002F051F867214DF21F5002F04CF8CB
:1040E00002214DF2205002F047F884214DF2215078
:1040F00002F042F802214DF2225002F03DF8A421D4
:104100004DF2235002F038F802214DF2245002F013
:1041100033F8B7214DF2255002F02EF802214DF26E
:10412000265002F029F8CF214DF2275002F024F852
:1041300002214DF2285002F01FF8DE214DF22950E5
:1041400002F01AF802214DF22A5002F015F8F2217D
:104150004DF22B5002F010F802214DF22C5002F0DB
:104160000BF8FE214DF22D5002F006F803214DF21E
:104170002E5002F001F810214DF22F5001F0FCFFFB
:1041800003214DF2305001F0F7FF33214DF2315051
:1041900001F0F2FF03214DF2325001F0EDFF6D21ED
:1041A0004DF2335001F0E8FF00214FF4564001F08A
:1041B000E3FF33214DF2016001F0DEFF00214DF2FB
:1041C000026001F0D9FF34214DF2036001F0D4FF09
:1041D00000214DF2046001F0CFFF3A214DF205605D
:1041E00001F0CAFF00214DF2066001F0C5FF4A212F
:1041F0004DF2076001F0C0FF00214DF2086001F0B0
:10420000BBFF5C214DF2096001F0B6FF00214DF2C9
:104210000A6001F0B1FF81214DF20B6001F0ACFFAB
:1042200000214DF20C6001F0A7FFA6214DF20D60B8
:1042300001F0A2FF00214DF20E6001F09DFFE5218B
:104240004DF20F6001F098FF01214DF2106001F076
:1042500093FF13214DF2116001F08EFF01214DF209
:10426000126001F089FF54214DF2136001F084FFC8
:1042700001214DF2146001F07FFF82214DF21560A3
:1042800001F07AFF01214DF2166001F075FFCA219D
:104290004DF2176001F070FF02214DF2186001F03D
:1042A0006BFF00214DF2196001F066FF02214DF213
:1042B0001A6001F061FF01214DF21B6001F05CFF0B
:1042C00002214DF21C6001F057FF34214DF21D60B8
:1042D00001F052FF02214DF21E6001F04DFF6721F7
:1042E0004DF21F6001F048FF02214DF2206001F005
:1042F00043FF84214DF2216001F03EFF02214DF287
:10430000226001F039FFA4214DF2236001F034FF57
:1043100002214DF2246001F02FFFB7214DF22560FC
:1043200001F02AFF02214DF2266001F025FFCF2186
:104330004DF2276001F020FF02214DF2286001F0CC
:104340001BFFDE214DF2296001F016FF02214DF224
:104350002A6001F011FFF2214DF22B6001F00CFFF9
:1043600002214DF22C6001F007FFFE214DF22D607D
:1043700001F002FF03214DF22E6001F0FDFE10213D
:104380004DF22F6001F0F8FE03214DF2306001F094
:10439000F3FE33214DF2316001F0EEFE03214DF2C8
:1043A000326001F0E9FE6D214DF2336001F0E4FE70
:1043B0005521204601F0E0FEAA21284601F0DCFE4E
:1043C0005221304601F0D8FE0821384601F0D4FED3
:1043D0000021404601F0D0FECC21584601F0CCFE31
:1043E00000214BF2011001F0C7FE0521484601F003
:1043F000C3FE70214FF4374001F0BEFE70214BF236
:10440000017001F0B9FE01214FF4384001F0B4FE13
:1044100003214BF6010001F0AFFE03214BF6020031
:1044200001F0AAFE03214BF6030001F0A5FE0221D4
:104430004FF43C4001F0A0FE00214BF6014001F09A
:104440009BFE00214BF6024001F096FED0214FF476
:10445000494001F091FE02214CF6011001F08CFE62
:1044600050214CF6021001F087FE50214CF603104B
:1044700001F082FE50214CF6041001F07DFE002177
:104480004FF4545001F078FE55214FF4685001F07C
:1044900073FE4FF4885001F057FE782002F061FC63
:1044A0004FF4245001F050FE01F04CBAA0F5134136
:1044B0004FF4E06840F23F154FF42747253936D0D6
:1044C000A0F513414FF4017940F2077628397DD0E9
:1044D000A0F513414FF488774FF41C5B203976D058
:1044E000A0F51341313973D0A0F5A841083970D037
:1044F000A0F5A8514FF4407705396BD0A0F53541B0
:10450000053968D0A0F5454105397DD0A0F50941B0
:1045100089397AD0A0F58A41313977D0A0F58A411E
:10452000353974D0A0F5C851633971D0BCE747F66E
:10453000F001E52001F020FE2146012001F01CFEE3
:104540004146022001F018FE41F23001032001F043
:1045500013FE0021042001F00FFE40F2022108208A
:1045600001F00AFE0021092001F006FE00210A20C8
:1045700001F002FE00210C2001F0FEFD00210D20C3
:1045800001F0FAFD00210F2001F0F6FD00211020BE
:1045900001F0F2FD0721112001F0EEFD00211220B3
:1045A00001F0EAFD0021132001F0E6FD00210720C3
:1045B00001F0E2FD41F29061102001F0DDFD40F2DA
:1045C0002721112001F0D8FD9D2105E088E043E17D
:1045D000E6E1B9E253E3FDE3122001F0CDFD4FF433
:1045E000C851132001F0C8FD2521292001F0C4FD88
:1045F0000D212B2001F0C0FD0721302001F0BCFD72
:1046000040F20331312004E0E5E3E5E3E5E3E5E3EF
:10461000E5E301F0B1FD0321322001F0ADFD40F2F0
:104620000621352001F0A8FD0821362001F0A4FD67
:1046300040F20641372001F09FFD4FF441713820D0
:1046400001F09AFD0721392001F096FD40F2026148
:104650003C2001F091FD08213D2001F08DFD00215D
:10466000502001F089FDEF21512001F085FD00214E
:10467000522001F081FD2946532001F07DFD39468D
:10468000602001F079FD0121612001F075FD00211C
:104690006A2001F071FD0021802001F06DFD0021F4
:1046A000812001F069FD0021822001F065FD0021DB
:1046B000832001F061FD0021842001F05DFD0021D7
:1046C000852001F059FD1021902001F055FD4FF497
:1046D000C061922001F050FD40F233110720FCE34D
:1046E00041F28F01EC2001F047FD41F23421EF202F
:1046F00001F042FD2146012001F03EFD414602202D
:1047000001F03AFD41F23001032001F035FD0021B6
:10471000042001F031FD40F20221082001F02CFDBF
:104720000021092001F028FD00210A2001F024FDCC
:1047300001210C2001F020FD00210D2001F01CFDC5
:1047400000210F2001F018FD0021102001F014FDC0
:104750000721112001F010FD0021122001F00CFDB5
:104760000021132001F008FD0121072001F004FDC4
:10477000322002F0E9FA41F29041102001F0FCFCF5
:1047800040F22721112001F0F7FC322002F0DCFA80
:104790008A21122001F0F0FC322002F0D5FA4FF409
:1047A000D051132001F0E8FC0621292001F0E4FC9F
:1047B0000D212B2001F0E0FC322002F0C5FA00218F
:1047C000202001F0D9FC0021212001F0D5FC32206D
:1047D00002F0BAFA0021302001F0CEFC40F2046170
:1047E000312001F0C9FC40F20531322001F0C4FC57
:1047F0000021352001F0C0FC40F60941362001F0CF
:10480000BBFC4946372001F0B7FC40F201313820AB
:1048100001F0B2FC3146392001F0AEFC00213C2011
:1048200001F0AAFC40F60A213D2001F0A5FC32204F
:1048300002F08AFA0021502001F09EFCEF21512065
:1048400001F09AFC0021522001F096FC29465320E9
:1048500001F092FC39464CE10021084601F08CFC45
:104860002146012001F088FC4146022001F084FC31
:1048700041F23001032001F07FFC0021042001F00F
:104880007BFC40F20221082001F076FC0021092087
:1048900001F072FC00210A2001F06EFC01210C20C5
:1048A00001F06AFC00210D2001F066FC00210F20C0
:1048B00001F062FC322002F047FA40F201110720B9
:1048C00001F05AFC322002F03FFA4FF486511020DA
:1048D00001F052FC0721112001F04EFC3946122054
:1048E00001F04AFC4FF43061132001F045FC002137
:1048F000292001F041FC44F210012B2001F03CFC86
:104900000021502001F038FCEF21512001F034FC4F
:104910000021522001F030FC2946532001F02CFCEC
:104920005946602001F028FC0121612001F024FC9F
:1049300000216A2001F020FC0021802001F01CFCF5
:104940000021812001F018FC0021822001F014FCDC
:104950000021832001F010FC0021842001F00CFCD8
:104960000021852001F008FC1021902001F004FCBA
:104970000021922001F000FC0121932001F0FCFBBA
:104980003946952001F0F8FB0021972001F0F4FB57
:104990000021982001F0F0FB40F2731107207EE324
:1049A00041F21401E72001F0E7FB2146012001F06C
:1049B000E3FB4FF40071022001F0DEFB41F238010D
:1049C000032001F0D9FB40F20221082001F0D4FBC2
:1049D0000021092001F0D0FB00210A2001F0CCFBCE
:1049E00000210C2001F0C8FB00210D2001F0C4FBC8
:1049F00000210F2001F0C0FB0021102001F0BCFBC2
:104A00000721112001F0B8FB0021122001F0B4FBB6
:104A10000021132001F0B0FBC82002F095F941F20B
:104A20009061102001F0A8FB40F22721112001F035
:104A3000A3FB322002F088F90C21122001F09CFB2C
:104A4000322002F081F94FF40061132001F094FB51
:104A50001121292001F090FB0B212B2001F08CFB70
:104A6000322002F071F90021202001F085FB294657
:104A7000212001F081FB0021302001F07DFB4FF46B
:104A800083742146312001F077FB0021322001F0B0
:104A900073FB4946352001F06FFB41F20A61362075
:104AA00001F06AFB3146372001F066FB21463820D1
:104AB00001F062FB3146392001F05EFB40F2024119
:104AC0003C2001F059FB40F60F413D2001F054FB22
:104AD0000021502001F050FBEF21512001F04CFB50
:104AE0000021522001F048FB2946532001F044FBED
:104AF0005946602001F040FB0121612001F03CFBA0
:104B000000216A2001F038FB0021802001F034FBF5
:104B10000021812001F030FB0021822001F02CFBDC
:104B20000021832001F028FB0021842001F024FBD8
:104B30000021852001F020FB1021902001F01CFBBA
:104B40004FF4C0619220FDE32146012001F014FBE7
:104B50004146022001F010FB41F23001032001F038
:104B60000BFB0021042001F007FB40F20721082085
:104B700001F002FB0021092001F0FEFA00210A20C9
:104B800001F0FAFA00210C2001F0F6FA00210D20C4
:104B900001F0F2FA00210F2001F0EEFA142002F0E9
:104BA000D3F841F2B061102001F0E6FA01211120A2
:104BB00001F0E2FA0121172001F0DEFA4FF49C71B6
:104BC000122001F0D9FA4FF40061132001F0D4FA59
:104BD0000921292001F0D0FA09212A2001F0CCFA7C
:104BE0000021A42001F0C8FA0021502001F0C4FAED
:104BF000EF21512001F0C0FA0021522001F0BCFA4F
:104C00002946532001F0B8FA5946602001F0B4FA61
:104C10000121612001F0B0FA00216A2001F0ACFA14
:104C20000021802001F0A8FA0021812001F0A4FADF
:104C30000021822001F0A0FA0021832001F09CFADB
:104C40000021842001F098FA0021852001F094FAD7
:104C50001321902001F090FA0021922001F08CFAAB
:104C60000321932001F088FA3946952001F084FA57
:104C700040F27311072001F07FFA32200FE100218A
:104C8000072001F079FA322002F05EF84FF48E71BD
:104C9000122001F071FA0121A42001F06DFA0F2118
:104CA000082001F069FA08210A2001F065FA0821BC
:104CB0000D2001F061FAB1463146302001F05CFA76
:104CC0000721312001F058FA40F20361322001F04F
:104CD00053FA46464146332001F04EFA40F2022193
:104CE000342001F049FA0221352001F045FA41F65D
:104CF0000F71362001F040FA4946372001F03CFAA6
:104D00000021382001F038FA0021392001F034FA6E
:104D100049463A2001F030FA00213B2001F02CFAFC
:104D200007213C2001F028FA00213D2001F024FA5F
:104D3000322002F009F80121072001F01DFA0121BB
:104D4000172001F019FA322001F0FEFF4FF4BD5197
:104D5000102001F011FA40F21721112001F00CFA95
:104D60004FF48F71122001F007FA4FF47061132095
:104D700001F002FA00212A2001F0FEF90A2129207F
:104D800001F0FAF94FF49F71122001F0F5F90021BA
:104D9000502001F0F1F9EF21512001F0EDF900214F
:104DA000522001F0E9F92946532001F0E5F959466E
:104DB000602001F0E1F90121612001F0DDF900211D
:104DC0006A2001F0D9F90021802001F0D5F90021F5
:104DD000812005E066E063E129E2DCE290E3FDE3A7
:104DE00001F0CAF90021822001F0C6F900218320D8
:104DF00001F0C2F90021842001F0BEF900218520D4
:104E000001F0BAF91321902001F0B6F93946922049
:104E100001F0B2F90521932001F0AEF900219520AF
:104E200001F0AAF90021972001F0A6F900219820AD
:104E300001F0A2F92146012001F09EF9314602203D
:104E400001F09AF941F23801032001F095F90021AF
:104E5000042001F091F900210C2001F08DF90021CE
:104E60000F2001F089F90021202001F085F90021AF
:104E7000212001F081F92121072001F07DF9142082
:104E800001F062FF6121072001F076F9142001F0A2
:104E90005BFF40F27311072001F06EF9142001F05E
:104EA00053FF2CE30021084601F066F90021084673
:104EB00001F062F90021084601F05EF90021084680
:104EC00001F05AF90121A42001F056F9142001F053
:104ED0003BFF5E465946602000E0DCE001F04CF903
:104EE00040F202273946082001F046F94FF40571D7
:104EF000302001F041F943F21571312001F03CF905
:104F000040F20461322001F037F940F61661332097
:104F100001F032F942F21121342001F02DF94FF461
:104F2000A851352001F028F948F20751362001F048
:104F300023F941F20741372001F01EF941F2034104
:104F4000382001F019F92021392001F015F91A2132
:104F5000902001F011F90021102001F00DF9072136
:104F6000112001F009F90021122001F005F90021BA
:104F7000132001F001F9142001F0E6FE4FF4E66180
:104F8000102001F0F9F840F23711112001F0F4F887
:104F9000142001F0D9FE4FF4DC71122001F0ECF87E
:104FA000142001F0D1FE4FF47061132001F0E4F8F9
:104FB00080212A2001F0E0F84821292001F0DCF8C6
:104FC000142001F0C1FE2146012001F0D5F8414630
:104FD000022001F0D1F841F23801032001F0CCF8B1
:104FE0003946082001F0C8F800210A2001F0C4F871
:104FF00000210C2001F0C0F800210D2001F0BCF8C8
:1050000030210E2001F0B8F80021502001F0B4F852
:10501000EF21512001F0B0F80021522001F0ACF84E
:105020002946532001F0A8F83146602001F0A4F889
:105030000121612001F0A0F800216A2001F09CF814
:105040001121902001F098F84FF4C061922001F0F6
:1050500093F840F20241932001F08EF8022194204F
:1050600001F08AF8142001F06FFE0121072001F001
:1050700083F8142001F068FE6121072001F07CF81C
:1050800040F27311072001F077F80021202001F091
:1050900073F80021212001F06FF8222100202CE27A
:1050A0000021084601F068F80021084601F064F884
:1050B000142001F049FE0021084601F05DF80021AE
:1050C000084601F059F80021084601F055F8002182
:1050D000084601F051F80121A42001F04DF81420F8
:1050E00001F032FE5946602001F046F840F6060114
:1050F000082001F041F840F203763146302001F0FB
:105100003BF80121312001F037F80421322001F071
:1051100033F84FF48171332001F02EF839463420F2
:1051200001F02AF840F20311352001F025F81F2183
:10513000362001F021F83146372001F01DF8012119
:10514000382001F019F80421392001F015F8152153
:10515000902001F011F84FF48261102001F00CF85A
:1051600040F24721112001F007F84FF4DE711220C0
:1051700001F002F84FF46061132000F0FDFF782089
:1051800001F0E2FD2146012000F0F6FF4FF400712E
:10519000022000F0F1FF41F23001032000F0ECFFAB
:1051A00008210A2000F0E8FF00210C2000F0E4FFB5
:1051B00020210E2000F0E0FF00210F2000F0DCFF96
:1051C0000021202000F0D8FF0021212000F0D4FF92
:1051D0003D212A2000F0D0FF142001F0B5FD2D2143
:1051E000292000F0C9FF0021502000F0C5FF4DF23A
:1051F000EF01512000F0C0FF0021522000F0BCFF61
:105200002946532000F0B8FF0021612000F0B4FFD0
:1052100000216A2000F0B0FF3946922000F0ACFF78
:105220000521932000F0A8FF2146FFF7B7BB01211D
:10523000002000F0A1FF4AF6A401032000F09CFF2B
:1052400000210C2000F098FF40F60C010D2000F02A
:1052500093FF4FF42C510E2000F08EFFB0211E2042
:1052600000F08AFF42F63F31012000F085FF4FF445
:10527000C061022000F080FF0021102000F07CFFC0
:1052800046F27801112000F077FF0021052000F0A0
:1052900073FF0021062000F06FFF4EF61C711620F0
:1052A00000F06AFF0321172000F066FF40F233216F
:1052B000072000F061FF00210B2000F05DFF0021BE
:1052C0000F2000F059FF0021412000F055FF002180
:1052D000422000F051FF0021482000F04DFF2946F8
:1052E000492000F049FF00214A2000F045FF00213D
:1052F0004B2000F041FF4FF46F41442000F03CFF91
:105300000021452000F038FF2946462000F034FFF8
:105310003146302000F030FF4C464946312000F045
:105320002BFF2146322000F027FF40F2025529468C
:10533000332000F021FF691D342000F01DFF2146BD
:10534000352000E080E100F017FF2146362000F014
:1053500013FF2946372000F00FFF40F202342146A8
:105360003A2000F009FF21463B2000F005FF002114
:10537000232000F001FF0021242000F0FDFE4FF467
:105380000041252000F0F8FE00214F2000F0F4FE3F
:1053900000214E20B1E00121002000F0EDFE0A20A6
:1053A00001F0D2FC41F22861102000F0E5FE0E2150
:1053B000122000F0E1FE40F63921132000F0DCFE5F
:1053C0000A2001F0C1FC4021112000F0D5FE50213F
:1053D000152000F0D1FE0A2001F0B6FC1E2112209B
:1053E00000F0CAFE0A2001F0AFFC4FF4B1511020CA
:1053F00000F0C2FE42F63921132000F0BDFE0A2063
:1054000001F0A2FC2146012000F0B6FE3946022040
:1054100000F0B2FE41F23801032000F0ADFE40F290
:105420000221082000F0A8FE08210A2000F0A4FEB6
:105430000021302000F0A0FE40F20241312000F0B7
:105440009BFE4FF48371322000F096FE40F2035130
:10545000332000F091FE4FF48271342000F08CFE76
:1054600040F20131352000F087FE3146362000F051
:1054700083FE40F20531372000F07EFE4FF40271CA
:10548000382000F079FE40F60B71392000F074FEF0
:105490000221412000F070FE5946602000F06CFEB1
:1054A0000121612000F068FE4FF40471902000F0AB
:1054B00063FE4FF48571922000F05EFE042193207C
:1054C00000F05AFE2146A02000F056FE01210720E0
:1054D00000F052FE2121072000F04EFE232107207C
:1054E00000F04AFE3321072000F046FE40F233115F
:1054F000072000F041FE0021A02000F03DFE21E247
:105500003021152000F038FE10219A2000F034FEE2
:105510002021112000F030FE43F22841102000F03D
:105520002BFE0221122000F027FE41F23801132049
:1055300000F022FE282001F007FC1221084600F0AE
:105540001BFE282001F000FC43F22041102000F057
:1055500013FE43F23801132000F00EFE462001F046
:10556000F3FB0021302000F007FE40F20241312021
:1055700000F002FE40F20731322000F0FDFD4FF452
:105580004171332000F0F8FD0421342000F0F4FDD7
:1055900040F20141352000F0EFFD3146362000F0A9
:1055A000EBFD40F20531372000F0E6FD4FF4C26517
:1055B0002946382000F0E0FD2946392000F0DCFDC6
:1055C0002146012000F0D8FD3946022000F0D4FD2C
:1055D00041F23001032000F0CFFD00E039E040F659
:1055E0000801082000F0C8FD08210A2000F0C4FDD1
:1055F0005946602000F0C0FD0121612000F0BCFD93
:105600004FF49F71902000F0B7FD2146922000F0EA
:10561000B3FD2146932000F0AFFD4FF44051A02090
:1056200000F0AAFD1021A32000F0A6FD0121072013
:1056300000F0A2FD2121072000F09EFD232107207C
:1056400000F09AFD3321072000F096FD40F233115F
:10565000EBE5E22000F078FD2746C14C2761651597
:105660006561DFF800831D21C8F80010802666619F
:1056700026612561276165610220C8F80000666126
:1056800026612561276165610420C8F80000666114
:1056900026612561642001F064FBE02000F054FDE8
:1056A00027616561C8F800A06661266125610A204E
:1056B00001F04AFBE02000F047FD276165614FF0F3
:1056C000030BC8F800B06661266125610C2001F06B
:1056D0003BFB012000F038FD0A2001F035FBE620FD
:1056E00000F032FD276165612F21C8F80010666166
:1056F0002661256127616561FF20C8F800006661A9
:105700002661256127616561C8F800006661266130
:105710002561B02000F018FD276165612021C8F8DF
:105720000010666126612561276165614FF00009FF
:10573000C8F8009066612661256127616561C8F837
:1057400000B06661266125612761656140F21F3105
:10575000C8F8001066612661256127616561C8F897
:1057600000A06661266125612761656140F2DF1155
:10577000C8F8001066612661256127616561C8F877
:105780000090666126612561B42000F0DDFC276190
:1057900065610420C8F80000666126612561276103
:1057A000656140F21F41C8F80010666126612561FD
:1057B00027616561C8F800906661266125612761EF
:1057C00065612E21C8F80010666126612561276198
:1057D00065614146C8F800906661266125612761D0
:1057E0006561C8F800906661266125612761656181
:1057F000C8F8009066612661256127616561C1F87E
:105800000090666126612561B62000F09DFC27614D
:1058100065610221C8F80010666126612561276173
:1058200065614FF40371C8F8001066612661256157
:1058300027616561C8F8009066612661256127616E
:1058400065611721C8F8001066612661256127612E
:1058500065611521C8F80010666126612561276120
:105860006561C8F800906661266125612761656100
:10587000C8F80090666126612561F02000F064FCA4
:1058800027616561C8F800B066612661256129203D
:1058900000F05AFCD02000F057FC27616561C8F881
:1058A0000090666126612561BE2000F04DFC2761F5
:1058B00065610521C8F800106661266125612761D0
:1058C0006561FE21C8F800106661266125612761C7
:1058D00065614146C8F800A06661266125612761BF
:1058E0006561C8F800906661266125612761656180
:1058F000C8F8009066612661256127616561C1F87D
:105900000090666126612561B82000F01DFC2761CA
:105910006561C8F800B0666126612561276165612F
:10592000C8F800A0666126612561BA2000F00CFC71
:1059300027616561C8F800A0666126612561642061
:1059400000F054F80120FCF71BFB0749C1F8A8A19F
:105950004FF6FF70FCF7D4FA07B0BDE8F08F0000F7
:10596000001001400C0C0140000022422DE9F047DC
:10597000DFF85C904FF08830C9F8000009F10405A9
:105980002860134E00200C363060124CA8152061A0
:10599000470067614FF04008C4F814800E488088C3
:1059A000A0F50941893902D1022001F0DAF908484D
:1059B00008300068C4F8108080B227614FF033319E
:1059C000C9F8001029604FF6FF713160BDE8F0871B
:1059D000000C0140001001404012002010B500F002
:1059E000B3FBBDE81040FFF7C1BF00002DE9F04751
:1059F0008146BE2000F0A8FB204C4FF48077276141
:105A000065156561DFF878800521C8F800108026EB
:105A1000666126612561276165614846FAF738FCB1
:105A20004FF06632174BFAF7C1FBFAF73EFCC8F8A5
:105A30000000666126612561276165610121C8F862
:105A4000001066612661256127616561FF21C8F844
:105A50000010666126612561276165610020C8F834
:105A6000000066612661256127616561C8F8000054
:105A7000666126612561BDE8F087000000100140E5
:105A80000C0C0140666604402DE9F04FCF4C002518
:105A90002146A379898846F6040241F66316012B54
:105AA00001D02BB11DE091421BD0B14202D118E0D0
:105AB000B14216D1082814D2DFE800F00406080A23
:105AC0000C0E101206200CE007200AE0042008E06B
:105AD000052006E0012004E0002002E0032000E0B1
